{
  "address": "0x7CCf2D7f48a485A8a66aeb6FFC0A4a71Ab20EB00",
  "abi": [
    {
      "inputs": [
        {
          "internalType": "address",
          "name": "_owner",
          "type": "address"
        }
      ],
      "stateMutability": "nonpayable",
      "type": "constructor"
    },
    {
      "anonymous": false,
      "inputs": [
        {
          "indexed": true,
          "internalType": "address",
          "name": "owner",
          "type": "address"
        },
        {
          "indexed": true,
          "internalType": "address",
          "name": "approved",
          "type": "address"
        },
        {
          "indexed": true,
          "internalType": "uint256",
          "name": "tokenId",
          "type": "uint256"
        }
      ],
      "name": "Approval",
      "type": "event"
    },
    {
      "anonymous": false,
      "inputs": [
        {
          "indexed": true,
          "internalType": "address",
          "name": "owner",
          "type": "address"
        },
        {
          "indexed": true,
          "internalType": "address",
          "name": "operator",
          "type": "address"
        },
        {
          "indexed": false,
          "internalType": "bool",
          "name": "approved",
          "type": "bool"
        }
      ],
      "name": "ApprovalForAll",
      "type": "event"
    },
    {
      "anonymous": false,
      "inputs": [
        {
          "indexed": false,
          "internalType": "uint256",
          "name": "_fromTokenId",
          "type": "uint256"
        },
        {
          "indexed": false,
          "internalType": "uint256",
          "name": "_toTokenId",
          "type": "uint256"
        }
      ],
      "name": "BatchMetadataUpdate",
      "type": "event"
    },
    {
      "anonymous": false,
      "inputs": [
        {
          "indexed": true,
          "internalType": "uint256",
          "name": "tokenId",
          "type": "uint256"
        },
        {
          "indexed": true,
          "internalType": "uint256",
          "name": "collectionId",
          "type": "uint256"
        },
        {
          "indexed": true,
          "internalType": "address",
          "name": "to",
          "type": "address"
        }
      ],
      "name": "CertificateMinted",
      "type": "event"
    },
    {
      "anonymous": false,
      "inputs": [
        {
          "indexed": true,
          "internalType": "uint256",
          "name": "collectionId",
          "type": "uint256"
        },
        {
          "indexed": false,
          "internalType": "string",
          "name": "name",
          "type": "string"
        },
        {
          "indexed": true,
          "internalType": "address",
          "name": "issuer",
          "type": "address"
        }
      ],
      "name": "CollectionCreated",
      "type": "event"
    },
    {
      "anonymous": false,
      "inputs": [
        {
          "indexed": false,
          "internalType": "uint256",
          "name": "_tokenId",
          "type": "uint256"
        }
      ],
      "name": "MetadataUpdate",
      "type": "event"
    },
    {
      "anonymous": false,
      "inputs": [
        {
          "indexed": true,
          "internalType": "bytes32",
          "name": "role",
          "type": "bytes32"
        },
        {
          "indexed": true,
          "internalType": "bytes32",
          "name": "previousAdminRole",
          "type": "bytes32"
        },
        {
          "indexed": true,
          "internalType": "bytes32",
          "name": "newAdminRole",
          "type": "bytes32"
        }
      ],
      "name": "RoleAdminChanged",
      "type": "event"
    },
    {
      "anonymous": false,
      "inputs": [
        {
          "indexed": true,
          "internalType": "bytes32",
          "name": "role",
          "type": "bytes32"
        },
        {
          "indexed": true,
          "internalType": "address",
          "name": "account",
          "type": "address"
        },
        {
          "indexed": true,
          "internalType": "address",
          "name": "sender",
          "type": "address"
        }
      ],
      "name": "RoleGranted",
      "type": "event"
    },
    {
      "anonymous": false,
      "inputs": [
        {
          "indexed": true,
          "internalType": "bytes32",
          "name": "role",
          "type": "bytes32"
        },
        {
          "indexed": true,
          "internalType": "address",
          "name": "account",
          "type": "address"
        },
        {
          "indexed": true,
          "internalType": "address",
          "name": "sender",
          "type": "address"
        }
      ],
      "name": "RoleRevoked",
      "type": "event"
    },
    {
      "anonymous": false,
      "inputs": [
        {
          "indexed": true,
          "internalType": "uint256",
          "name": "collectionId",
          "type": "uint256"
        },
        {
          "indexed": true,
          "internalType": "uint256",
          "name": "certificationId",
          "type": "uint256"
        },
        {
          "indexed": true,
          "internalType": "address",
          "name": "signer",
          "type": "address"
        },
        {
          "indexed": false,
          "internalType": "bytes",
          "name": "signature",
          "type": "bytes"
        }
      ],
      "name": "SignatureAdded",
      "type": "event"
    },
    {
      "anonymous": false,
      "inputs": [
        {
          "indexed": true,
          "internalType": "uint256",
          "name": "collectionId",
          "type": "uint256"
        },
        {
          "indexed": true,
          "internalType": "uint256",
          "name": "certificationId",
          "type": "uint256"
        },
        {
          "indexed": true,
          "internalType": "address",
          "name": "signer",
          "type": "address"
        }
      ],
      "name": "SignerAdded",
      "type": "event"
    },
    {
      "anonymous": false,
      "inputs": [
        {
          "indexed": true,
          "internalType": "address",
          "name": "from",
          "type": "address"
        },
        {
          "indexed": true,
          "internalType": "address",
          "name": "to",
          "type": "address"
        },
        {
          "indexed": true,
          "internalType": "uint256",
          "name": "tokenId",
          "type": "uint256"
        }
      ],
      "name": "Transfer",
      "type": "event"
    },
    {
      "inputs": [],
      "name": "DEFAULT_ADMIN_ROLE",
      "outputs": [
        {
          "internalType": "bytes32",
          "name": "",
          "type": "bytes32"
        }
      ],
      "stateMutability": "view",
      "type": "function"
    },
    {
      "inputs": [],
      "name": "ISSUER_ROLE",
      "outputs": [
        {
          "internalType": "bytes32",
          "name": "",
          "type": "bytes32"
        }
      ],
      "stateMutability": "view",
      "type": "function"
    },
    {
      "inputs": [
        {
          "internalType": "address",
          "name": "issuer",
          "type": "address"
        }
      ],
      "name": "addIssuer",
      "outputs": [],
      "stateMutability": "nonpayable",
      "type": "function"
    },
    {
      "inputs": [
        {
          "internalType": "uint256",
          "name": "certificationId",
          "type": "uint256"
        },
        {
          "internalType": "bytes",
          "name": "signature",
          "type": "bytes"
        }
      ],
      "name": "addSignature",
      "outputs": [],
      "stateMutability": "nonpayable",
      "type": "function"
    },
    {
      "inputs": [
        {
          "internalType": "address",
          "name": "to",
          "type": "address"
        },
        {
          "internalType": "uint256",
          "name": "tokenId",
          "type": "uint256"
        }
      ],
      "name": "approve",
      "outputs": [],
      "stateMutability": "nonpayable",
      "type": "function"
    },
    {
      "inputs": [
        {
          "internalType": "address",
          "name": "owner",
          "type": "address"
        }
      ],
      "name": "balanceOf",
      "outputs": [
        {
          "internalType": "uint256",
          "name": "",
          "type": "uint256"
        }
      ],
      "stateMutability": "view",
      "type": "function"
    },
    {
      "inputs": [
        {
          "internalType": "string",
          "name": "name",
          "type": "string"
        },
        {
          "internalType": "address",
          "name": "signer",
          "type": "address"
        }
      ],
      "name": "createCollection",
      "outputs": [],
      "stateMutability": "nonpayable",
      "type": "function"
    },
    {
      "inputs": [
        {
          "internalType": "uint256",
          "name": "tokenId",
          "type": "uint256"
        }
      ],
      "name": "getApproved",
      "outputs": [
        {
          "internalType": "address",
          "name": "",
          "type": "address"
        }
      ],
      "stateMutability": "view",
      "type": "function"
    },
    {
      "inputs": [
        {
          "internalType": "uint256",
          "name": "certificationId",
          "type": "uint256"
        }
      ],
      "name": "getCertification",
      "outputs": [
        {
          "components": [
            {
              "internalType": "uint256",
              "name": "certificationId",
              "type": "uint256"
            },
            {
              "internalType": "uint256",
              "name": "collectionId",
              "type": "uint256"
            },
            {
              "internalType": "uint256",
              "name": "requiredSignatures",
              "type": "uint256"
            },
            {
              "internalType": "uint256",
              "name": "currentSignatures",
              "type": "uint256"
            },
            {
              "components": [
                {
                  "internalType": "uint256",
                  "name": "collectionId",
                  "type": "uint256"
                },
                {
                  "internalType": "uint256",
                  "name": "certification_Id",
                  "type": "uint256"
                },
                {
                  "internalType": "address",
                  "name": "signer",
                  "type": "address"
                },
                {
                  "internalType": "bytes",
                  "name": "signature",
                  "type": "bytes"
                }
              ],
              "internalType": "struct AvalCertify.Signature[]",
              "name": "signatures",
              "type": "tuple[]"
            }
          ],
          "internalType": "struct AvalCertify.Certification",
          "name": "",
          "type": "tuple"
        }
      ],
      "stateMutability": "view",
      "type": "function"
    },
    {
      "inputs": [
        {
          "internalType": "uint256",
          "name": "tokenId",
          "type": "uint256"
        }
      ],
      "name": "getCertificationId",
      "outputs": [
        {
          "internalType": "uint256",
          "name": "",
          "type": "uint256"
        }
      ],
      "stateMutability": "view",
      "type": "function"
    },
    {
      "inputs": [],
      "name": "getCertificationIds",
      "outputs": [
        {
          "internalType": "uint256[]",
          "name": "",
          "type": "uint256[]"
        }
      ],
      "stateMutability": "view",
      "type": "function"
    },
    {
      "inputs": [
        {
          "internalType": "uint256",
          "name": "collectionId",
          "type": "uint256"
        }
      ],
      "name": "getCertificationIds",
      "outputs": [
        {
          "internalType": "uint256[]",
          "name": "",
          "type": "uint256[]"
        }
      ],
      "stateMutability": "view",
      "type": "function"
    },
    {
      "inputs": [
        {
          "internalType": "uint256",
          "name": "certificationId",
          "type": "uint256"
        }
      ],
      "name": "getCertificationSignatures",
      "outputs": [
        {
          "components": [
            {
              "internalType": "uint256",
              "name": "collectionId",
              "type": "uint256"
            },
            {
              "internalType": "uint256",
              "name": "certification_Id",
              "type": "uint256"
            },
            {
              "internalType": "address",
              "name": "signer",
              "type": "address"
            },
            {
              "internalType": "bytes",
              "name": "signature",
              "type": "bytes"
            }
          ],
          "internalType": "struct AvalCertify.Signature[]",
          "name": "",
          "type": "tuple[]"
        }
      ],
      "stateMutability": "view",
      "type": "function"
    },
    {
      "inputs": [
        {
          "internalType": "uint256",
          "name": "certificationId",
          "type": "uint256"
        }
      ],
      "name": "getCertificationSigners",
      "outputs": [
        {
          "internalType": "address[]",
          "name": "",
          "type": "address[]"
        }
      ],
      "stateMutability": "view",
      "type": "function"
    },
    {
      "inputs": [],
      "name": "getCertificationsPendingSignatures",
      "outputs": [
        {
          "internalType": "uint256[]",
          "name": "",
          "type": "uint256[]"
        }
      ],
      "stateMutability": "view",
      "type": "function"
    },
    {
      "inputs": [
        {
          "internalType": "uint256",
          "name": "collectionId",
          "type": "uint256"
        }
      ],
      "name": "getCollection",
      "outputs": [
        {
          "components": [
            {
              "internalType": "uint256",
              "name": "collectionId",
              "type": "uint256"
            },
            {
              "internalType": "string",
              "name": "name",
              "type": "string"
            },
            {
              "internalType": "address",
              "name": "signer",
              "type": "address"
            },
            {
              "internalType": "uint256[]",
              "name": "certificationIds",
              "type": "uint256[]"
            }
          ],
          "internalType": "struct AvalCertify.Collection",
          "name": "",
          "type": "tuple"
        }
      ],
      "stateMutability": "view",
      "type": "function"
    },
    {
      "inputs": [
        {
          "internalType": "address",
          "name": "issuer",
          "type": "address"
        }
      ],
      "name": "getIssuerCollections",
      "outputs": [
        {
          "internalType": "uint256[]",
          "name": "",
          "type": "uint256[]"
        }
      ],
      "stateMutability": "view",
      "type": "function"
    },
    {
      "inputs": [],
      "name": "getIssuerCollections",
      "outputs": [
        {
          "internalType": "uint256[]",
          "name": "",
          "type": "uint256[]"
        }
      ],
      "stateMutability": "view",
      "type": "function"
    },
    {
      "inputs": [
        {
          "internalType": "address",
          "name": "owner",
          "type": "address"
        }
      ],
      "name": "getNFTsByOwner",
      "outputs": [
        {
          "internalType": "uint256[]",
          "name": "",
          "type": "uint256[]"
        }
      ],
      "stateMutability": "view",
      "type": "function"
    },
    {
      "inputs": [
        {
          "internalType": "bytes32",
          "name": "role",
          "type": "bytes32"
        }
      ],
      "name": "getRoleAdmin",
      "outputs": [
        {
          "internalType": "bytes32",
          "name": "",
          "type": "bytes32"
        }
      ],
      "stateMutability": "view",
      "type": "function"
    },
    {
      "inputs": [
        {
          "internalType": "uint256",
          "name": "certificationId",
          "type": "uint256"
        }
      ],
      "name": "getSignatures",
      "outputs": [
        {
          "components": [
            {
              "internalType": "uint256",
              "name": "collectionId",
              "type": "uint256"
            },
            {
              "internalType": "uint256",
              "name": "certification_Id",
              "type": "uint256"
            },
            {
              "internalType": "address",
              "name": "signer",
              "type": "address"
            },
            {
              "internalType": "bytes",
              "name": "signature",
              "type": "bytes"
            }
          ],
          "internalType": "struct AvalCertify.Signature[]",
          "name": "",
          "type": "tuple[]"
        }
      ],
      "stateMutability": "view",
      "type": "function"
    },
    {
      "inputs": [
        {
          "internalType": "bytes32",
          "name": "role",
          "type": "bytes32"
        },
        {
          "internalType": "address",
          "name": "account",
          "type": "address"
        }
      ],
      "name": "grantRole",
      "outputs": [],
      "stateMutability": "nonpayable",
      "type": "function"
    },
    {
      "inputs": [
        {
          "internalType": "bytes32",
          "name": "role",
          "type": "bytes32"
        },
        {
          "internalType": "address",
          "name": "account",
          "type": "address"
        }
      ],
      "name": "hasRole",
      "outputs": [
        {
          "internalType": "bool",
          "name": "",
          "type": "bool"
        }
      ],
      "stateMutability": "view",
      "type": "function"
    },
    {
      "inputs": [
        {
          "internalType": "address",
          "name": "owner",
          "type": "address"
        },
        {
          "internalType": "address",
          "name": "operator",
          "type": "address"
        }
      ],
      "name": "isApprovedForAll",
      "outputs": [
        {
          "internalType": "bool",
          "name": "",
          "type": "bool"
        }
      ],
      "stateMutability": "view",
      "type": "function"
    },
    {
      "inputs": [
        {
          "internalType": "address",
          "name": "to",
          "type": "address"
        },
        {
          "internalType": "string",
          "name": "uri",
          "type": "string"
        },
        {
          "internalType": "uint256",
          "name": "collectionId",
          "type": "uint256"
        }
      ],
      "name": "mintCertificate",
      "outputs": [],
      "stateMutability": "nonpayable",
      "type": "function"
    },
    {
      "inputs": [],
      "name": "name",
      "outputs": [
        {
          "internalType": "string",
          "name": "",
          "type": "string"
        }
      ],
      "stateMutability": "view",
      "type": "function"
    },
    {
      "inputs": [],
      "name": "nextCertificationId",
      "outputs": [
        {
          "internalType": "uint256",
          "name": "",
          "type": "uint256"
        }
      ],
      "stateMutability": "view",
      "type": "function"
    },
    {
      "inputs": [],
      "name": "nextCollectionId",
      "outputs": [
        {
          "internalType": "uint256",
          "name": "",
          "type": "uint256"
        }
      ],
      "stateMutability": "view",
      "type": "function"
    },
    {
      "inputs": [
        {
          "internalType": "uint256",
          "name": "tokenId",
          "type": "uint256"
        }
      ],
      "name": "ownerOf",
      "outputs": [
        {
          "internalType": "address",
          "name": "",
          "type": "address"
        }
      ],
      "stateMutability": "view",
      "type": "function"
    },
    {
      "inputs": [
        {
          "internalType": "address",
          "name": "issuer",
          "type": "address"
        }
      ],
      "name": "removeIssuer",
      "outputs": [],
      "stateMutability": "nonpayable",
      "type": "function"
    },
    {
      "inputs": [
        {
          "internalType": "bytes32",
          "name": "role",
          "type": "bytes32"
        },
        {
          "internalType": "address",
          "name": "account",
          "type": "address"
        }
      ],
      "name": "renounceRole",
      "outputs": [],
      "stateMutability": "nonpayable",
      "type": "function"
    },
    {
      "inputs": [
        {
          "internalType": "bytes32",
          "name": "role",
          "type": "bytes32"
        },
        {
          "internalType": "address",
          "name": "account",
          "type": "address"
        }
      ],
      "name": "revokeRole",
      "outputs": [],
      "stateMutability": "nonpayable",
      "type": "function"
    },
    {
      "inputs": [
        {
          "internalType": "address",
          "name": "from",
          "type": "address"
        },
        {
          "internalType": "address",
          "name": "to",
          "type": "address"
        },
        {
          "internalType": "uint256",
          "name": "tokenId",
          "type": "uint256"
        }
      ],
      "name": "safeTransferFrom",
      "outputs": [],
      "stateMutability": "nonpayable",
      "type": "function"
    },
    {
      "inputs": [
        {
          "internalType": "address",
          "name": "from",
          "type": "address"
        },
        {
          "internalType": "address",
          "name": "to",
          "type": "address"
        },
        {
          "internalType": "uint256",
          "name": "tokenId",
          "type": "uint256"
        },
        {
          "internalType": "bytes",
          "name": "data",
          "type": "bytes"
        }
      ],
      "name": "safeTransferFrom",
      "outputs": [],
      "stateMutability": "nonpayable",
      "type": "function"
    },
    {
      "inputs": [
        {
          "internalType": "address",
          "name": "operator",
          "type": "address"
        },
        {
          "internalType": "bool",
          "name": "approved",
          "type": "bool"
        }
      ],
      "name": "setApprovalForAll",
      "outputs": [],
      "stateMutability": "nonpayable",
      "type": "function"
    },
    {
      "inputs": [
        {
          "internalType": "bytes4",
          "name": "interfaceId",
          "type": "bytes4"
        }
      ],
      "name": "supportsInterface",
      "outputs": [
        {
          "internalType": "bool",
          "name": "",
          "type": "bool"
        }
      ],
      "stateMutability": "view",
      "type": "function"
    },
    {
      "inputs": [],
      "name": "symbol",
      "outputs": [
        {
          "internalType": "string",
          "name": "",
          "type": "string"
        }
      ],
      "stateMutability": "view",
      "type": "function"
    },
    {
      "inputs": [
        {
          "internalType": "uint256",
          "name": "",
          "type": "uint256"
        }
      ],
      "name": "tokenToCollection",
      "outputs": [
        {
          "internalType": "uint256",
          "name": "",
          "type": "uint256"
        }
      ],
      "stateMutability": "view",
      "type": "function"
    },
    {
      "inputs": [
        {
          "internalType": "uint256",
          "name": "tokenId",
          "type": "uint256"
        }
      ],
      "name": "tokenURI",
      "outputs": [
        {
          "internalType": "string",
          "name": "",
          "type": "string"
        }
      ],
      "stateMutability": "view",
      "type": "function"
    },
    {
      "inputs": [
        {
          "internalType": "address",
          "name": "from",
          "type": "address"
        },
        {
          "internalType": "address",
          "name": "to",
          "type": "address"
        },
        {
          "internalType": "uint256",
          "name": "tokenId",
          "type": "uint256"
        }
      ],
      "name": "transferFrom",
      "outputs": [],
      "stateMutability": "nonpayable",
      "type": "function"
    }
  ],
  "transactionHash": "0xeb6afe042aaefcbbdf106b5c1c87c73f3b2b230db3d7bad35fb3622b8dd69c9d",
  "args": [
    "0x9D686e8312C6cde76494549E772dFb871cC2c201"
  ],
  "numDeployments": 1,
  "solcInputHash": "510f61a16534736b7df0fabcf467c2c7",
  "bytecode": "0x60806040523480156200001157600080fd5b50604051620034e2380380620034e2833981016040819052620000349162000152565b6040518060400160405280600b81526020016a4176616c4365727469667960a81b815250604051806040016040528060038152602001621050d560ea1b815250816000908162000085919062000229565b50600162000094828262000229565b50620000a691506000905082620000ad565b50620002f5565b60008281526007602090815260408083206001600160a01b038516845290915290205460ff166200014e5760008281526007602090815260408083206001600160a01b03851684529091529020805460ff191660011790556200010d3390565b6001600160a01b0316816001600160a01b0316837f2f8788117e7eff1d82e926ec794901d17c78024a50270940304540a733656f0d60405160405180910390a45b5050565b6000602082840312156200016557600080fd5b81516001600160a01b03811681146200017d57600080fd5b9392505050565b634e487b7160e01b600052604160045260246000fd5b600181811c90821680620001af57607f821691505b602082108103620001d057634e487b7160e01b600052602260045260246000fd5b50919050565b601f8211156200022457600081815260208120601f850160051c81016020861015620001ff5750805b601f850160051c820191505b8181101562000220578281556001016200020b565b5050505b505050565b81516001600160401b0381111562000245576200024562000184565b6200025d816200025684546200019a565b84620001d6565b602080601f8311600181146200029557600084156200027c5750858301515b600019600386901b1c1916600185901b17855562000220565b600085815260208120601f198616915b82811015620002c657888601518255948401946001909101908401620002a5565b5085821015620002e55787850151600019600388901b60f8161c191681555b5050505050600190811b01905550565b6131dd80620003056000396000f3fe608060405234801561001057600080fd5b50600436106102485760003560e01c806391d148541161013b578063cb064ddf116100b8578063eb5b06bc1161007c578063eb5b06bc14610583578063ec981eac1461058c578063ee06c3f9146105ac578063f4eccb8f146105b4578063f93693c7146105c757600080fd5b8063cb064ddf14610505578063d547741f14610518578063e2afe8b31461052b578063e77d6f7c1461053e578063e985e9c51461054757600080fd5b8063a22cb465116100ff578063a22cb46514610499578063af78692f146104ac578063b88d4fde146104bf578063bfd1280a146104d2578063c87b56dd146104f257600080fd5b806391d148541461045057806395d89b41146104635780639b91ebc81461046b5780639bcfe6051461047e578063a217fddf1461049157600080fd5b8063248a9ca3116101c957806347bc70931161018d57806347bc7093146103e25780635a1f3c28146103f55780636352211e1461041557806370a082311461042857806382aefa241461043b57600080fd5b8063248a9ca3146103665780632f2ff15d1461038957806336568abe1461039c57806338bd4dec146103af57806342842e0e146103cf57600080fd5b8063195f78ae11610210578063195f78ae146102dd57806319c9dad31461030b57806320694db01461032b57806322c27c1f1461033e57806323b872dd1461035357600080fd5b806301ffc9a71461024d57806306fdde0314610275578063081812fc1461028a578063095ea7b3146102b55780630f90ce52146102ca575b600080fd5b61026061025b3660046127bc565b6105cf565b60405190151581526020015b60405180910390f35b61027d6105e0565b60405161026c9190612829565b61029d61029836600461283c565b610672565b6040516001600160a01b03909116815260200161026c565b6102c86102c3366004612871565b610699565b005b6102c86102d8366004612947565b6107b3565b6102fd6102eb36600461283c565b600b6020526000908152604090205481565b60405190815260200161026c565b6102fd61031936600461283c565b6000908152600b602052604090205490565b6102c8610339366004612995565b6108e8565b61034661090f565b60405161026c91906129b0565b6102c86103613660046129f4565b61099d565b6102fd61037436600461283c565b60009081526007602052604090206001015490565b6102c8610397366004612a30565b6109ce565b6102c86103aa366004612a30565b6109f3565b6103c26103bd36600461283c565b610a6d565b60405161026c9190612a53565b6102c86103dd3660046129f4565b610c46565b6102c86103f0366004612995565b610c61565b61040861040336600461283c565b610c84565b60405161026c9190612a94565b61029d61042336600461283c565b610de1565b6102fd610436366004612995565b610e41565b6102fd60008051602061318883398151915281565b61026061045e366004612a30565b610ec7565b61027d610ef2565b6102c8610479366004612b1b565b610f01565b61034661048c366004612995565b6110d6565b6102fd600081565b6102c86104a7366004612b97565b611142565b6103466104ba36600461283c565b61114d565b6102c86104cd366004612bd3565b6111b0565b6104e56104e036600461283c565b6111e8565b60405161026c9190612cd7565b61027d61050036600461283c565b61131a565b6102c8610513366004612cea565b611325565b6102c8610526366004612a30565b6113dc565b610346610539366004612995565b611401565b6102fd600c5481565b610260610555366004612d41565b6001600160a01b03918216600090815260056020908152604080832093909416825291909152205460ff1690565b6102fd600d5481565b61059f61059a36600461283c565b611510565b60405161026c9190612d6b565b6103466116aa565b6104e56105c236600461283c565b61170a565b610346611831565b60006105da8261193b565b92915050565b6060600080546105ef90612dae565b80601f016020809104026020016040519081016040528092919081815260200182805461061b90612dae565b80156106685780601f1061063d57610100808354040283529160200191610668565b820191906000526020600020905b81548152906001019060200180831161064b57829003601f168201915b5050505050905090565b600061067d82611960565b506000908152600460205260409020546001600160a01b031690565b60006106a482610de1565b9050806001600160a01b0316836001600160a01b0316036107165760405162461bcd60e51b815260206004820152602160248201527f4552433732313a20617070726f76616c20746f2063757272656e74206f776e656044820152603960f91b60648201526084015b60405180910390fd5b336001600160a01b038216148061073257506107328133610555565b6107a45760405162461bcd60e51b815260206004820152603d60248201527f4552433732313a20617070726f76652063616c6c6572206973206e6f7420746f60448201527f6b656e206f776e6572206f7220617070726f76656420666f7220616c6c000000606482015260840161070d565b6107ae83836119c2565b505050565b6000805160206131888339815191526107cb81611a30565b600c8054600091826107dc83612df8565b909155506040805160808101825282815260208082018881526001600160a01b0388168385015260608381018190526000868152600890935293909120825181559051939450919290919060018201906108369082612e5f565b5060408201516002820180546001600160a01b0319166001600160a01b0390921691909117905560608201518051610878916003840191602090910190612746565b5050506001600160a01b0384166000818152600960209081526040808320805460018101825590845291909220018490555183907f28264f4036324f7af9abd02761740048265f0c980737a3f97365dad3162cbe65906108d9908990612829565b60405180910390a35050505050565b60006108f381611a30565b61090b600080516020613188833981519152836109ce565b5050565b60606000600d5467ffffffffffffffff81111561092e5761092e61289b565b604051908082528060200260200182016040528015610957578160200160208202803683370190505b50905060005b600d54811015610997578082828151811061097a5761097a612f1f565b60209081029190910101528061098f81612df8565b91505061095d565b50919050565b6109a73382611a3a565b6109c35760405162461bcd60e51b815260040161070d90612f35565b6107ae838383611ab9565b6000828152600760205260409020600101546109e981611a30565b6107ae8383611c1d565b6001600160a01b0381163314610a635760405162461bcd60e51b815260206004820152602f60248201527f416363657373436f6e74726f6c3a2063616e206f6e6c792072656e6f756e636560448201526e103937b632b9903337b91039b2b63360891b606482015260840161070d565b61090b8282611ca3565b6000818152600a60209081526040808320600401805482518185028101850190935280835260609493849084015b82821015610b8a57600084815260209081902060408051608081018252600486029092018054835260018101549383019390935260028301546001600160a01b031690820152600382018054919291606084019190610af990612dae565b80601f0160208091040260200160405190810160405280929190818152602001828054610b2590612dae565b8015610b725780601f10610b4757610100808354040283529160200191610b72565b820191906000526020600020905b815481529060010190602001808311610b5557829003601f168201915b50505050508152505081526020019060010190610a9b565b5050505090506000815167ffffffffffffffff811115610bac57610bac61289b565b604051908082528060200260200182016040528015610bd5578160200160208202803683370190505b50905060005b8251811015610c3e57828181518110610bf657610bf6612f1f565b602002602001015160400151828281518110610c1457610c14612f1f565b6001600160a01b039092166020928302919091019091015280610c3681612df8565b915050610bdb565b509392505050565b6107ae838383604051806020016040528060008152506111b0565b6000610c6c81611a30565b61090b600080516020613188833981519152836113dc565b610cb86040518060800160405280600081526020016060815260200160006001600160a01b03168152602001606081525090565b6008600083815260200190815260200160002060405180608001604052908160008201548152602001600182018054610cf090612dae565b80601f0160208091040260200160405190810160405280929190818152602001828054610d1c90612dae565b8015610d695780601f10610d3e57610100808354040283529160200191610d69565b820191906000526020600020905b815481529060010190602001808311610d4c57829003601f168201915b505050918352505060028201546001600160a01b03166020808301919091526003830180546040805182850281018501825282815294019392830182828015610dd157602002820191906000526020600020905b815481526020019060010190808311610dbd575b5050505050815250509050919050565b6000818152600260205260408120546001600160a01b0316806105da5760405162461bcd60e51b8152602060048201526018602482015277115490cdcc8c4e881a5b9d985b1a59081d1bdad95b88125160421b604482015260640161070d565b60006001600160a01b038216610eab5760405162461bcd60e51b815260206004820152602960248201527f4552433732313a2061646472657373207a65726f206973206e6f7420612076616044820152683634b21037bbb732b960b91b606482015260840161070d565b506001600160a01b031660009081526003602052604090205490565b60009182526007602090815260408084206001600160a01b0393909316845291905290205460ff1690565b6060600180546105ef90612dae565b6000838152600b60209081526040808320548084526008909252909120600201546001600160a01b03163314610f8a5760405162461bcd60e51b815260206004820152602860248201527f4f6e6c792074686520617369676e207369676e65722063616e20616464207369604482015267676e61747572657360c01b606482015260840161070d565b60006040518060800160405280838152602001868152602001336001600160a01b0316815260200185858080601f0160208091040260200160405190810160405280939291908181526020018383808284376000920182905250939094525050878152600a6020908152604080832060049081018054600180820183559186529484902087519590920290910193845591850151918301919091558301516002820180546001600160a01b0319166001600160a01b039092169190911790556060830151929350839290915060038201906110659082612e5f565b5050506000858152600a6020526040812060030180549161108583612df8565b9190505550336001600160a01b031685837f24b5ddb34fb55f78fa42bc11b8edbba4c34ba1c295d28ca430630940caa7e2fd87876040516110c7929190612f82565b60405180910390a45050505050565b6001600160a01b03811660009081526009602090815260409182902080548351818402810184019094528084526060939283018282801561113657602002820191906000526020600020905b815481526020019060010190808311611122575b50505050509050919050565b61090b338383611d0a565b60008181526008602090815260409182902060030180548351818402810184019094528084526060939283018282801561113657602002820191906000526020600020908154815260200190600101908083116111225750505050509050919050565b6111ba3383611a3a565b6111d65760405162461bcd60e51b815260040161070d90612f35565b6111e284848484611dd8565b50505050565b6060600a6000838152602001908152602001600020600401805480602002602001604051908101604052809291908181526020016000905b8282101561130f57600084815260209081902060408051608081018252600486029092018054835260018101549383019390935260028301546001600160a01b03169082015260038201805491929160608401919061127e90612dae565b80601f01602080910402602001604051908101604052809291908181526020018280546112aa90612dae565b80156112f75780601f106112cc576101008083540402835291602001916112f7565b820191906000526020600020905b8154815290600101906020018083116112da57829003601f168201915b50505050508152505081526020019060010190611220565b505050509050919050565b60606105da82611e0b565b60008051602061318883398151915261133d81611a30565b60006113498585611f13565b6000818152600a602090815260408083208481556001808201899055600282018190556003808301869055898652600885528386200180549182018155855283852001859055848452600b90925280832087905551929350916001600160a01b03881691869185917ff1a3904a1d8c467c050e96c639ec351752bc2221f037d230363aef0c4a363ed191a4505050505050565b6000828152600760205260409020600101546113f781611a30565b6107ae8383611ca3565b60606000805b600e5481101561145257836001600160a01b031661142482610de1565b6001600160a01b031603611440578161143c81612df8565b9250505b8061144a81612df8565b915050611407565b5060008167ffffffffffffffff81111561146e5761146e61289b565b604051908082528060200260200182016040528015611497578160200160208202803683370190505b5090506000805b600e5481101561150657856001600160a01b03166114bb82610de1565b6001600160a01b0316036114f4578083836114d581612df8565b9450815181106114e7576114e7612f1f565b6020026020010181815250505b806114fe81612df8565b91505061149e565b5090949350505050565b6115426040518060a0016040528060008152602001600081526020016000815260200160008152602001606081525090565b600a60008381526020019081526020016000206040518060a00160405290816000820154815260200160018201548152602001600282015481526020016003820154815260200160048201805480602002602001604051908101604052809291908181526020016000905b8282101561169c57600084815260209081902060408051608081018252600486029092018054835260018101549383019390935260028301546001600160a01b03169082015260038201805491929160608401919061160b90612dae565b80601f016020809104026020016040519081016040528092919081815260200182805461163790612dae565b80156116845780601f1061165957610100808354040283529160200191611684565b820191906000526020600020905b81548152906001019060200180831161166757829003601f168201915b505050505081525050815260200190600101906115ad565b505050915250909392505050565b3360009081526009602090815260409182902080548351818402810184019094528084526060939283018282801561066857602002820191906000526020600020905b8154815260200190600101908083116116ed575050505050905090565b6060600a6000838152602001908152602001600020600401805480602002602001604051908101604052809291908181526020016000905b8282101561130f57600084815260209081902060408051608081018252600486029092018054835260018101549383019390935260028301546001600160a01b0316908201526003820180549192916060840191906117a090612dae565b80601f01602080910402602001604051908101604052809291908181526020018280546117cc90612dae565b80156118195780601f106117ee57610100808354040283529160200191611819565b820191906000526020600020905b8154815290600101906020018083116117fc57829003601f168201915b50505050508152505081526020019060010190611742565b60606000805b600d54811015611880576000818152600a602052604090206002810154600390910154101561186e578161186a81612df8565b9250505b8061187881612df8565b915050611837565b5060008167ffffffffffffffff81111561189c5761189c61289b565b6040519080825280602002602001820160405280156118c5578160200160208202803683370190505b5090506000805b600d54811015611932576000818152600a60205260409020600281015460039091015410156119205780838361190181612df8565b94508151811061191357611913612f1f565b6020026020010181815250505b8061192a81612df8565b9150506118cc565b50909392505050565b60006001600160e01b03198216637965db0b60e01b14806105da57506105da82611f48565b6000818152600260205260409020546001600160a01b03166119bf5760405162461bcd60e51b8152602060048201526018602482015277115490cdcc8c4e881a5b9d985b1a59081d1bdad95b88125160421b604482015260640161070d565b50565b600081815260046020526040902080546001600160a01b0319166001600160a01b03841690811790915581906119f782610de1565b6001600160a01b03167f8c5be1e5ebec7d5bd14f71427d1e84f3dd0314c0f7b2291e5b200ac8c7c3b92560405160405180910390a45050565b6119bf8133611f6d565b600080611a4683610de1565b9050806001600160a01b0316846001600160a01b03161480611a8d57506001600160a01b0380821660009081526005602090815260408083209388168352929052205460ff165b80611ab15750836001600160a01b0316611aa684610672565b6001600160a01b0316145b949350505050565b826001600160a01b0316611acc82610de1565b6001600160a01b031614611af25760405162461bcd60e51b815260040161070d90612fb1565b6001600160a01b038216611b545760405162461bcd60e51b8152602060048201526024808201527f4552433732313a207472616e7366657220746f20746865207a65726f206164646044820152637265737360e01b606482015260840161070d565b826001600160a01b0316611b6782610de1565b6001600160a01b031614611b8d5760405162461bcd60e51b815260040161070d90612fb1565b600081815260046020908152604080832080546001600160a01b03199081169091556001600160a01b0387811680865260038552838620805460001901905590871680865283862080546001019055868652600290945282852080549092168417909155905184937fddf252ad1be2c89b69c2b068fc378daa952ba7f163c4a11628f55a4df523b3ef91a4505050565b611c278282610ec7565b61090b5760008281526007602090815260408083206001600160a01b03851684529091529020805460ff19166001179055611c5f3390565b6001600160a01b0316816001600160a01b0316837f2f8788117e7eff1d82e926ec794901d17c78024a50270940304540a733656f0d60405160405180910390a45050565b611cad8282610ec7565b1561090b5760008281526007602090815260408083206001600160a01b0385168085529252808320805460ff1916905551339285917ff6391f5c32d9c69d2a47ea670b442974b53935d1edc7fd64eb21e047a839171b9190a45050565b816001600160a01b0316836001600160a01b031603611d6b5760405162461bcd60e51b815260206004820152601960248201527f4552433732313a20617070726f766520746f2063616c6c657200000000000000604482015260640161070d565b6001600160a01b03838116600081815260056020908152604080832094871680845294825291829020805460ff191686151590811790915591519182527f17307eab39ab6107e8899845ad3d59bd9653f200f220920489ca2b5937696c31910160405180910390a3505050565b611de3848484611ab9565b611def84848484611fc6565b6111e25760405162461bcd60e51b815260040161070d90612ff6565b6060611e1682611960565b60008281526006602052604081208054611e2f90612dae565b80601f0160208091040260200160405190810160405280929190818152602001828054611e5b90612dae565b8015611ea85780601f10611e7d57610100808354040283529160200191611ea8565b820191906000526020600020905b815481529060010190602001808311611e8b57829003601f168201915b505050505090506000611ec660408051602081019091526000815290565b90508051600003611ed8575092915050565b815115611f0a578082604051602001611ef2929190613048565b60405160208183030381529060405292505050919050565b611ab1846120c7565b600e805460009182919082611f2783612df8565b919050559050611f37848261213a565b611f418184612154565b9392505050565b60006001600160e01b03198216632483248360e11b14806105da57506105da8261221f565b611f778282610ec7565b61090b57611f848161226f565b611f8f836020612281565b604051602001611fa0929190613077565b60408051601f198184030181529082905262461bcd60e51b825261070d91600401612829565b60006001600160a01b0384163b156120bc57604051630a85bd0160e11b81526001600160a01b0385169063150b7a029061200a9033908990889088906004016130ec565b6020604051808303816000875af1925050508015612045575060408051601f3d908101601f1916820190925261204291810190613129565b60015b6120a2573d808015612073576040519150601f19603f3d011682016040523d82523d6000602084013e612078565b606091505b50805160000361209a5760405162461bcd60e51b815260040161070d90612ff6565b805181602001fd5b6001600160e01b031916630a85bd0160e11b149050611ab1565b506001949350505050565b60606120d282611960565b60006120e960408051602081019091526000815290565b905060008151116121095760405180602001604052806000815250611f41565b806121138461241d565b604051602001612124929190613048565b6040516020818303038152906040529392505050565b61090b8282604051806020016040528060008152506124b0565b6000828152600260205260409020546001600160a01b03166121cf5760405162461bcd60e51b815260206004820152602e60248201527f45524337323155524953746f726167653a2055524920736574206f66206e6f6e60448201526d32bc34b9ba32b73a103a37b5b2b760911b606482015260840161070d565b60008281526006602052604090206121e78282612e5f565b506040518281527ff8e1a15aba9398e019f0b49df1a4fde98ee17ae345cb5f6b5e2c27f5033e8ce79060200160405180910390a15050565b60006001600160e01b031982166380ac58cd60e01b148061225057506001600160e01b03198216635b5e139f60e01b145b806105da57506301ffc9a760e01b6001600160e01b03198316146105da565b60606105da6001600160a01b03831660145b60606000612290836002613146565b61229b90600261315d565b67ffffffffffffffff8111156122b3576122b361289b565b6040519080825280601f01601f1916602001820160405280156122dd576020820181803683370190505b509050600360fc1b816000815181106122f8576122f8612f1f565b60200101906001600160f81b031916908160001a905350600f60fb1b8160018151811061232757612327612f1f565b60200101906001600160f81b031916908160001a905350600061234b846002613146565b61235690600161315d565b90505b60018111156123ce576f181899199a1a9b1b9c1cb0b131b232b360811b85600f166010811061238a5761238a612f1f565b1a60f81b8282815181106123a0576123a0612f1f565b60200101906001600160f81b031916908160001a90535060049490941c936123c781613170565b9050612359565b508315611f415760405162461bcd60e51b815260206004820181905260248201527f537472696e67733a20686578206c656e67746820696e73756666696369656e74604482015260640161070d565b6060600061242a836124e3565b600101905060008167ffffffffffffffff81111561244a5761244a61289b565b6040519080825280601f01601f191660200182016040528015612474576020820181803683370190505b5090508181016020015b600019016f181899199a1a9b1b9c1cb0b131b232b360811b600a86061a8153600a850494508461247e57509392505050565b6124ba83836125bb565b6124c76000848484611fc6565b6107ae5760405162461bcd60e51b815260040161070d90612ff6565b60008072184f03e93ff9f4daa797ed6e38ed64bf6a1f0160401b83106125225772184f03e93ff9f4daa797ed6e38ed64bf6a1f0160401b830492506040015b6d04ee2d6d415b85acef8100000000831061254e576d04ee2d6d415b85acef8100000000830492506020015b662386f26fc10000831061256c57662386f26fc10000830492506010015b6305f5e1008310612584576305f5e100830492506008015b612710831061259857612710830492506004015b606483106125aa576064830492506002015b600a83106105da5760010192915050565b6001600160a01b0382166126115760405162461bcd60e51b815260206004820181905260248201527f4552433732313a206d696e7420746f20746865207a65726f2061646472657373604482015260640161070d565b6000818152600260205260409020546001600160a01b0316156126765760405162461bcd60e51b815260206004820152601c60248201527f4552433732313a20746f6b656e20616c7265616479206d696e74656400000000604482015260640161070d565b6000818152600260205260409020546001600160a01b0316156126db5760405162461bcd60e51b815260206004820152601c60248201527f4552433732313a20746f6b656e20616c7265616479206d696e74656400000000604482015260640161070d565b6001600160a01b038216600081815260036020908152604080832080546001019055848352600290915280822080546001600160a01b0319168417905551839291907fddf252ad1be2c89b69c2b068fc378daa952ba7f163c4a11628f55a4df523b3ef908290a45050565b828054828255906000526020600020908101928215612781579160200282015b82811115612781578251825591602001919060010190612766565b5061278d929150612791565b5090565b5b8082111561278d5760008155600101612792565b6001600160e01b0319811681146119bf57600080fd5b6000602082840312156127ce57600080fd5b8135611f41816127a6565b60005b838110156127f45781810151838201526020016127dc565b50506000910152565b600081518084526128158160208601602086016127d9565b601f01601f19169290920160200192915050565b602081526000611f4160208301846127fd565b60006020828403121561284e57600080fd5b5035919050565b80356001600160a01b038116811461286c57600080fd5b919050565b6000806040838503121561288457600080fd5b61288d83612855565b946020939093013593505050565b634e487b7160e01b600052604160045260246000fd5b600067ffffffffffffffff808411156128cc576128cc61289b565b604051601f8501601f19908116603f011681019082821181831017156128f4576128f461289b565b8160405280935085815286868601111561290d57600080fd5b858560208301376000602087830101525050509392505050565b600082601f83011261293857600080fd5b611f41838335602085016128b1565b6000806040838503121561295a57600080fd5b823567ffffffffffffffff81111561297157600080fd5b61297d85828601612927565b92505061298c60208401612855565b90509250929050565b6000602082840312156129a757600080fd5b611f4182612855565b6020808252825182820181905260009190848201906040850190845b818110156129e8578351835292840192918401916001016129cc565b50909695505050505050565b600080600060608486031215612a0957600080fd5b612a1284612855565b9250612a2060208501612855565b9150604084013590509250925092565b60008060408385031215612a4357600080fd5b8235915061298c60208401612855565b6020808252825182820181905260009190848201906040850190845b818110156129e85783516001600160a01b031683529284019291840191600101612a6f565b600060208083528351818401528084015160806040850152612ab960a08501826127fd565b60408601516001600160a01b0316606086810191909152860151858203601f19016080870152805180835290840192506000918401905b80831015612b105783518252928401926001929092019190840190612af0565b509695505050505050565b600080600060408486031215612b3057600080fd5b83359250602084013567ffffffffffffffff80821115612b4f57600080fd5b818601915086601f830112612b6357600080fd5b813581811115612b7257600080fd5b876020828501011115612b8457600080fd5b6020830194508093505050509250925092565b60008060408385031215612baa57600080fd5b612bb383612855565b915060208301358015158114612bc857600080fd5b809150509250929050565b60008060008060808587031215612be957600080fd5b612bf285612855565b9350612c0060208601612855565b925060408501359150606085013567ffffffffffffffff811115612c2357600080fd5b8501601f81018713612c3457600080fd5b612c43878235602084016128b1565b91505092959194509250565b600081518084526020808501808196508360051b8101915082860160005b85811015612cca57828403895281518051855285810151868601526040808201516001600160a01b031690860152606090810151608091860182905290612cb6818701836127fd565b9a87019a9550505090840190600101612c6d565b5091979650505050505050565b602081526000611f416020830184612c4f565b600080600060608486031215612cff57600080fd5b612d0884612855565b9250602084013567ffffffffffffffff811115612d2457600080fd5b612d3086828701612927565b925050604084013590509250925092565b60008060408385031215612d5457600080fd5b612d5d83612855565b915061298c60208401612855565b60208152815160208201526020820151604082015260408201516060820152606082015160808201526000608083015160a080840152611ab160c0840182612c4f565b600181811c90821680612dc257607f821691505b60208210810361099757634e487b7160e01b600052602260045260246000fd5b634e487b7160e01b600052601160045260246000fd5b600060018201612e0a57612e0a612de2565b5060010190565b601f8211156107ae57600081815260208120601f850160051c81016020861015612e385750805b601f850160051c820191505b81811015612e5757828155600101612e44565b505050505050565b815167ffffffffffffffff811115612e7957612e7961289b565b612e8d81612e878454612dae565b84612e11565b602080601f831160018114612ec25760008415612eaa5750858301515b600019600386901b1c1916600185901b178555612e57565b600085815260208120601f198616915b82811015612ef157888601518255948401946001909101908401612ed2565b5085821015612f0f5787850151600019600388901b60f8161c191681555b5050505050600190811b01905550565b634e487b7160e01b600052603260045260246000fd5b6020808252602d908201527f4552433732313a2063616c6c6572206973206e6f7420746f6b656e206f776e6560408201526c1c881bdc88185c1c1c9bdd9959609a1b606082015260800190565b60208152816020820152818360408301376000818301604090810191909152601f909201601f19160101919050565b60208082526025908201527f4552433732313a207472616e736665722066726f6d20696e636f72726563742060408201526437bbb732b960d91b606082015260800190565b60208082526032908201527f4552433732313a207472616e7366657220746f206e6f6e20455243373231526560408201527131b2b4bb32b91034b6b83632b6b2b73a32b960711b606082015260800190565b6000835161305a8184602088016127d9565b83519083019061306e8183602088016127d9565b01949350505050565b7f416363657373436f6e74726f6c3a206163636f756e74200000000000000000008152600083516130af8160178501602088016127d9565b7001034b99036b4b9b9b4b733903937b6329607d1b60179184019182015283516130e08160288401602088016127d9565b01602801949350505050565b6001600160a01b038581168252841660208201526040810183905260806060820181905260009061311f908301846127fd565b9695505050505050565b60006020828403121561313b57600080fd5b8151611f41816127a6565b80820281158282048414176105da576105da612de2565b808201808211156105da576105da612de2565b60008161317f5761317f612de2565b50600019019056fe114e74f6ea3bd819998f78687bfcb11b140da08e9b7d222fa9c1f1ba1f2aa122a264697066735822122035094f1ac9cf16049adcbfdc06d31881933994d6f7be53c2d8f6a9273d518cd164736f6c63430008110033",
  "devdoc": {
    "kind": "dev",
    "methods": {
      "approve(address,uint256)": {
        "details": "See {IERC721-approve}."
      },
      "balanceOf(address)": {
        "details": "See {IERC721-balanceOf}."
      },
      "getApproved(uint256)": {
        "details": "See {IERC721-getApproved}."
      },
      "getRoleAdmin(bytes32)": {
        "details": "Returns the admin role that controls `role`. See {grantRole} and {revokeRole}. To change a role's admin, use {_setRoleAdmin}."
      },
      "grantRole(bytes32,address)": {
        "details": "Grants `role` to `account`. If `account` had not been already granted `role`, emits a {RoleGranted} event. Requirements: - the caller must have ``role``'s admin role. May emit a {RoleGranted} event."
      },
      "hasRole(bytes32,address)": {
        "details": "Returns `true` if `account` has been granted `role`."
      },
      "isApprovedForAll(address,address)": {
        "details": "See {IERC721-isApprovedForAll}."
      },
      "name()": {
        "details": "See {IERC721Metadata-name}."
      },
      "ownerOf(uint256)": {
        "details": "See {IERC721-ownerOf}."
      },
      "renounceRole(bytes32,address)": {
        "details": "Revokes `role` from the calling account. Roles are often managed via {grantRole} and {revokeRole}: this function's purpose is to provide a mechanism for accounts to lose their privileges if they are compromised (such as when a trusted device is misplaced). If the calling account had been revoked `role`, emits a {RoleRevoked} event. Requirements: - the caller must be `account`. May emit a {RoleRevoked} event."
      },
      "revokeRole(bytes32,address)": {
        "details": "Revokes `role` from `account`. If `account` had been granted `role`, emits a {RoleRevoked} event. Requirements: - the caller must have ``role``'s admin role. May emit a {RoleRevoked} event."
      },
      "safeTransferFrom(address,address,uint256)": {
        "details": "See {IERC721-safeTransferFrom}."
      },
      "safeTransferFrom(address,address,uint256,bytes)": {
        "details": "See {IERC721-safeTransferFrom}."
      },
      "setApprovalForAll(address,bool)": {
        "details": "See {IERC721-setApprovalForAll}."
      },
      "symbol()": {
        "details": "See {IERC721Metadata-symbol}."
      },
      "transferFrom(address,address,uint256)": {
        "details": "See {IERC721-transferFrom}."
      }
    },
    "version": 1
  },
  "userdoc": {
    "kind": "user",
    "methods": {},
    "version": 1
  },
  "storageLayout": {
    "storage": [
      {
        "astId": 555,
        "contract": "contracts/AvalCertify.sol:AvalCertify",
        "label": "_name",
        "offset": 0,
        "slot": "0",
        "type": "t_string_storage"
      },
      {
        "astId": 557,
        "contract": "contracts/AvalCertify.sol:AvalCertify",
        "label": "_symbol",
        "offset": 0,
        "slot": "1",
        "type": "t_string_storage"
      },
      {
        "astId": 561,
        "contract": "contracts/AvalCertify.sol:AvalCertify",
        "label": "_owners",
        "offset": 0,
        "slot": "2",
        "type": "t_mapping(t_uint256,t_address)"
      },
      {
        "astId": 565,
        "contract": "contracts/AvalCertify.sol:AvalCertify",
        "label": "_balances",
        "offset": 0,
        "slot": "3",
        "type": "t_mapping(t_address,t_uint256)"
      },
      {
        "astId": 569,
        "contract": "contracts/AvalCertify.sol:AvalCertify",
        "label": "_tokenApprovals",
        "offset": 0,
        "slot": "4",
        "type": "t_mapping(t_uint256,t_address)"
      },
      {
        "astId": 575,
        "contract": "contracts/AvalCertify.sol:AvalCertify",
        "label": "_operatorApprovals",
        "offset": 0,
        "slot": "5",
        "type": "t_mapping(t_address,t_mapping(t_address,t_bool))"
      },
      {
        "astId": 1606,
        "contract": "contracts/AvalCertify.sol:AvalCertify",
        "label": "_tokenURIs",
        "offset": 0,
        "slot": "6",
        "type": "t_mapping(t_uint256,t_string_storage)"
      },
      {
        "astId": 24,
        "contract": "contracts/AvalCertify.sol:AvalCertify",
        "label": "_roles",
        "offset": 0,
        "slot": "7",
        "type": "t_mapping(t_bytes32,t_struct(RoleData)19_storage)"
      },
      {
        "astId": 3410,
        "contract": "contracts/AvalCertify.sol:AvalCertify",
        "label": "collections",
        "offset": 0,
        "slot": "8",
        "type": "t_mapping(t_uint256,t_struct(Collection)3383_storage)"
      },
      {
        "astId": 3415,
        "contract": "contracts/AvalCertify.sol:AvalCertify",
        "label": "issuersCollections",
        "offset": 0,
        "slot": "9",
        "type": "t_mapping(t_address,t_array(t_uint256)dyn_storage)"
      },
      {
        "astId": 3420,
        "contract": "contracts/AvalCertify.sol:AvalCertify",
        "label": "certifications",
        "offset": 0,
        "slot": "10",
        "type": "t_mapping(t_uint256,t_struct(Certification)3405_storage)"
      },
      {
        "astId": 3424,
        "contract": "contracts/AvalCertify.sol:AvalCertify",
        "label": "tokenToCollection",
        "offset": 0,
        "slot": "11",
        "type": "t_mapping(t_uint256,t_uint256)"
      },
      {
        "astId": 3426,
        "contract": "contracts/AvalCertify.sol:AvalCertify",
        "label": "nextCollectionId",
        "offset": 0,
        "slot": "12",
        "type": "t_uint256"
      },
      {
        "astId": 3428,
        "contract": "contracts/AvalCertify.sol:AvalCertify",
        "label": "nextCertificationId",
        "offset": 0,
        "slot": "13",
        "type": "t_uint256"
      },
      {
        "astId": 3469,
        "contract": "contracts/AvalCertify.sol:AvalCertify",
        "label": "_nextTokenId",
        "offset": 0,
        "slot": "14",
        "type": "t_uint256"
      }
    ],
    "types": {
      "t_address": {
        "encoding": "inplace",
        "label": "address",
        "numberOfBytes": "20"
      },
      "t_array(t_struct(Signature)3392_storage)dyn_storage": {
        "base": "t_struct(Signature)3392_storage",
        "encoding": "dynamic_array",
        "label": "struct AvalCertify.Signature[]",
        "numberOfBytes": "32"
      },
      "t_array(t_uint256)dyn_storage": {
        "base": "t_uint256",
        "encoding": "dynamic_array",
        "label": "uint256[]",
        "numberOfBytes": "32"
      },
      "t_bool": {
        "encoding": "inplace",
        "label": "bool",
        "numberOfBytes": "1"
      },
      "t_bytes32": {
        "encoding": "inplace",
        "label": "bytes32",
        "numberOfBytes": "32"
      },
      "t_bytes_storage": {
        "encoding": "bytes",
        "label": "bytes",
        "numberOfBytes": "32"
      },
      "t_mapping(t_address,t_array(t_uint256)dyn_storage)": {
        "encoding": "mapping",
        "key": "t_address",
        "label": "mapping(address => uint256[])",
        "numberOfBytes": "32",
        "value": "t_array(t_uint256)dyn_storage"
      },
      "t_mapping(t_address,t_bool)": {
        "encoding": "mapping",
        "key": "t_address",
        "label": "mapping(address => bool)",
        "numberOfBytes": "32",
        "value": "t_bool"
      },
      "t_mapping(t_address,t_mapping(t_address,t_bool))": {
        "encoding": "mapping",
        "key": "t_address",
        "label": "mapping(address => mapping(address => bool))",
        "numberOfBytes": "32",
        "value": "t_mapping(t_address,t_bool)"
      },
      "t_mapping(t_address,t_uint256)": {
        "encoding": "mapping",
        "key": "t_address",
        "label": "mapping(address => uint256)",
        "numberOfBytes": "32",
        "value": "t_uint256"
      },
      "t_mapping(t_bytes32,t_struct(RoleData)19_storage)": {
        "encoding": "mapping",
        "key": "t_bytes32",
        "label": "mapping(bytes32 => struct AccessControl.RoleData)",
        "numberOfBytes": "32",
        "value": "t_struct(RoleData)19_storage"
      },
      "t_mapping(t_uint256,t_address)": {
        "encoding": "mapping",
        "key": "t_uint256",
        "label": "mapping(uint256 => address)",
        "numberOfBytes": "32",
        "value": "t_address"
      },
      "t_mapping(t_uint256,t_string_storage)": {
        "encoding": "mapping",
        "key": "t_uint256",
        "label": "mapping(uint256 => string)",
        "numberOfBytes": "32",
        "value": "t_string_storage"
      },
      "t_mapping(t_uint256,t_struct(Certification)3405_storage)": {
        "encoding": "mapping",
        "key": "t_uint256",
        "label": "mapping(uint256 => struct AvalCertify.Certification)",
        "numberOfBytes": "32",
        "value": "t_struct(Certification)3405_storage"
      },
      "t_mapping(t_uint256,t_struct(Collection)3383_storage)": {
        "encoding": "mapping",
        "key": "t_uint256",
        "label": "mapping(uint256 => struct AvalCertify.Collection)",
        "numberOfBytes": "32",
        "value": "t_struct(Collection)3383_storage"
      },
      "t_mapping(t_uint256,t_uint256)": {
        "encoding": "mapping",
        "key": "t_uint256",
        "label": "mapping(uint256 => uint256)",
        "numberOfBytes": "32",
        "value": "t_uint256"
      },
      "t_string_storage": {
        "encoding": "bytes",
        "label": "string",
        "numberOfBytes": "32"
      },
      "t_struct(Certification)3405_storage": {
        "encoding": "inplace",
        "label": "struct AvalCertify.Certification",
        "members": [
          {
            "astId": 3394,
            "contract": "contracts/AvalCertify.sol:AvalCertify",
            "label": "certificationId",
            "offset": 0,
            "slot": "0",
            "type": "t_uint256"
          },
          {
            "astId": 3396,
            "contract": "contracts/AvalCertify.sol:AvalCertify",
            "label": "collectionId",
            "offset": 0,
            "slot": "1",
            "type": "t_uint256"
          },
          {
            "astId": 3398,
            "contract": "contracts/AvalCertify.sol:AvalCertify",
            "label": "requiredSignatures",
            "offset": 0,
            "slot": "2",
            "type": "t_uint256"
          },
          {
            "astId": 3400,
            "contract": "contracts/AvalCertify.sol:AvalCertify",
            "label": "currentSignatures",
            "offset": 0,
            "slot": "3",
            "type": "t_uint256"
          },
          {
            "astId": 3404,
            "contract": "contracts/AvalCertify.sol:AvalCertify",
            "label": "signatures",
            "offset": 0,
            "slot": "4",
            "type": "t_array(t_struct(Signature)3392_storage)dyn_storage"
          }
        ],
        "numberOfBytes": "160"
      },
      "t_struct(Collection)3383_storage": {
        "encoding": "inplace",
        "label": "struct AvalCertify.Collection",
        "members": [
          {
            "astId": 3375,
            "contract": "contracts/AvalCertify.sol:AvalCertify",
            "label": "collectionId",
            "offset": 0,
            "slot": "0",
            "type": "t_uint256"
          },
          {
            "astId": 3377,
            "contract": "contracts/AvalCertify.sol:AvalCertify",
            "label": "name",
            "offset": 0,
            "slot": "1",
            "type": "t_string_storage"
          },
          {
            "astId": 3379,
            "contract": "contracts/AvalCertify.sol:AvalCertify",
            "label": "signer",
            "offset": 0,
            "slot": "2",
            "type": "t_address"
          },
          {
            "astId": 3382,
            "contract": "contracts/AvalCertify.sol:AvalCertify",
            "label": "certificationIds",
            "offset": 0,
            "slot": "3",
            "type": "t_array(t_uint256)dyn_storage"
          }
        ],
        "numberOfBytes": "128"
      },
      "t_struct(RoleData)19_storage": {
        "encoding": "inplace",
        "label": "struct AccessControl.RoleData",
        "members": [
          {
            "astId": 16,
            "contract": "contracts/AvalCertify.sol:AvalCertify",
            "label": "members",
            "offset": 0,
            "slot": "0",
            "type": "t_mapping(t_address,t_bool)"
          },
          {
            "astId": 18,
            "contract": "contracts/AvalCertify.sol:AvalCertify",
            "label": "adminRole",
            "offset": 0,
            "slot": "1",
            "type": "t_bytes32"
          }
        ],
        "numberOfBytes": "64"
      },
      "t_struct(Signature)3392_storage": {
        "encoding": "inplace",
        "label": "struct AvalCertify.Signature",
        "members": [
          {
            "astId": 3385,
            "contract": "contracts/AvalCertify.sol:AvalCertify",
            "label": "collectionId",
            "offset": 0,
            "slot": "0",
            "type": "t_uint256"
          },
          {
            "astId": 3387,
            "contract": "contracts/AvalCertify.sol:AvalCertify",
            "label": "certification_Id",
            "offset": 0,
            "slot": "1",
            "type": "t_uint256"
          },
          {
            "astId": 3389,
            "contract": "contracts/AvalCertify.sol:AvalCertify",
            "label": "signer",
            "offset": 0,
            "slot": "2",
            "type": "t_address"
          },
          {
            "astId": 3391,
            "contract": "contracts/AvalCertify.sol:AvalCertify",
            "label": "signature",
            "offset": 0,
            "slot": "3",
            "type": "t_bytes_storage"
          }
        ],
        "numberOfBytes": "128"
      },
      "t_uint256": {
        "encoding": "inplace",
        "label": "uint256",
        "numberOfBytes": "32"
      }
    }
  }
}